:020000040000FA
:100000000C9462000C948A000C948A000C948A0070
:100010000C948A000C948A000C948A000C948A0038
:100020000C948A000C948A000C948A000C948A0028
:100030000C948A000C948A000C948A000C948A0018
:100040000C9455050C948A000C94C5050C949F05DE
:100050000C948A000C948A000C948A000C948A00F8
:100060000C948A000C948A000000000024002700F1
:100070002A0000000000250028002B0000000008D6
:10008000000201000003040700000000000000005F
:1000900000000000230026002900040404040404D6
:1000A0000404020202020202030303030303010227
:1000B00004081020408001020408102001020408F6
:1000C0001020F70511241FBECFEFD8E0DEBFCDBF53
:1000D00011E0A0E0B1E0E6EAF4E102C005900D9283
:1000E000AA34B107D9F722E0AAE4B1E001C01D9219
:1000F000AB31B207E1F710E0C2E6D0E004C02197CF
:10010000FE010E944B0AC136D107C9F70E94620660
:100110000C94510A0C940000CF92DF92EF92FF9260
:10012000CF93DF93B091F701A0E08111AB2F8091C5
:10013000F80190E0880F991FAC0140575F4FC090C5
:10014000FD01D090FE01E090FF01F090000230E050
:1001500020E0FA01C591D491E881B90190E080E0F6
:10016000EB23EA130AC02F5F3F4F6C157D058E0508
:100170009F0578F36FEF7FEFCB01DF91CF91FF9079
:10018000EF90DF90CF90089590E0FC01E458FF4F8E
:100190002491FC01E255FF4F3491FC01E656FF4FDC
:1001A000E491EE23C9F0222339F0233001F1A8F4C1
:1001B000213019F1223029F1F0E0EE0FFF1FEE5847
:1001C000FF4FA591B4918FB7F894EC91611126C0BF
:1001D00030953E233C938FBF08952730A9F02830F7
:1001E000C9F0243049F7809180008F7D03C0809151
:1001F00080008F7780938000DFCF84B58F7784BDB8
:10020000DBCF84B58F7DFBCF8091B0008F7780935B
:10021000B000D2CF8091B0008F7DF9CF3E2BDACFE6
:10022000CF93DF9390E0FC01E255FF4F2491865677
:100230009F4FFC0184918823D1F090E0880F991F93
:10024000FC01E859FF4FA591B491FC01EE58FF4F16
:10025000C591D491623071F49FB7F8943C91822F8C
:10026000809583238C93E8812E2B28839FBFDF9179
:10027000CF9108958FB7F894EC912E2B2C938FBFCC
:10028000F6CF3FB7F89480914B0190914C01A0912B
:100290004D01B0914E0126B5A89B05C02F3F19F026
:1002A0000196A11DB11D3FBFBA2FA92F982F8827F6
:1002B000BC01CD01620F711D811D911D42E0660FD1
:1002C000771F881F991F4A95D1F708958F929F92A3
:1002D000AF92BF92CF92DF92EF92FF924B015C01FF
:1002E0000E9441016B017C010E9441016C197D0952
:1002F0008E099F09683E734081059105A8F321E0AE
:10030000821A9108A108B10888EEC80E83E0D81EB1
:10031000E11CF11C81149104A104B10429F7FF90A0
:10032000EF90DF90CF90BF90AF909F908F90089507
:10033000CF92DF92EF92FF920F931F93CF93DF93B1
:10034000CDB7DEB7C054D1400FB6F894DEBF0FBEB4
:10035000CDBF2FB7F89480914F0190915001A0919B
:100360005101B09152012FBF4091F9015091FA0112
:100370006091FB017091FC018C019D01041B150B28
:10038000260B370BB901A801403D574061057105A7
:1003900090F480910102C05CDE4F0FB6F894DEBF8E
:1003A0000FBECDBFDF91CF911F910F91FF90EF90C6
:1003B000DF90CF9008958093F9019093FA01A09374
:1003C000FB01B093FC011092F4011092F301109222
:1003D000F2011092F1011092F00162E08091F501BA
:1003E0000E94100161E070E080E090E00E946601F0
:1003F00061E08091F5010E94100160E08091F501BB
:100400000E94C4008091F6018551823020F58BE274
:1004100091E10197F1F762E08091F5010E941001EE
:100420008091020290E08230910538F0880F991F88
:10043000880F991F05970197F1F7F89480E00E94C3
:100440008C006F3F7F4F8F4F9F4F61F410920102DE
:10045000789480E0A0CF64E170E080E090E00E94BA
:100460006601D9CF81E00E948C006F3F7F4F8F4F94
:100470009F4F61F38E010F5F1F4F6E018FEBC81A04
:100480008EEFD80A780180E00E948C00F70160832B
:1004900071838283938381E00E948C00F7016483DF
:1004A000758386839783F8E0EF0EF11CEC14FD044E
:1004B00051F7789430E020E0F801C080D180E280EC
:1004C000F3804481558166817781FFEFCF16DF0687
:1004D000EF06FF0631F04F3F8FEF580768077807A8
:1004E00019F410920102B5CFF90183E0F595E79573
:1004F0008A95E1F7E051FE4F8081880FC416D5063A
:10050000E606F70610F180832F5F3F4F085F1F4F0D
:100510002832310589F64091F4012091F001809153
:10052000F101280F3327331F8091F201280F311D6D
:100530008091F301820F932F911D99274817190677
:1005400081F681E08093010226CF8160DCCFAF92FB
:10055000BF92CF92DF92EF92FF920F931F93CF93B0
:10056000DF936C017B018B01040F151FEB015E0112
:10057000AE18BF08C017D10759F06991D601ED91A7
:10058000FC910190F081E02DC6010995892B79F746
:10059000C501DF91CF911F910F91FF90EF90DF90F8
:1005A000CF90BF90AF900895FC01538D448D252FBF
:1005B00030E0842F90E0821B930B541710F0CF96FD
:1005C000089501970895FC01918D828D981761F02F
:1005D000A28DAE0FBF2FB11D5D968C91928D9F5F46
:1005E0009F73928F90E008958FEF9FEF0895FC0125
:1005F000918D828D981731F0828DE80FF11D858DD8
:1006000090E008958FEF9FEF0895FC01918D228D6A
:10061000892F90E0805C9F4F821B91098F739927EF
:10062000089583E591E00E94050321E0892B09F4F8
:1006300020E0822F089580E090E0892B29F00E942D
:10064000110381110C9400000895FC01A48DA80FE2
:10065000B92FB11DA35ABF4F2C91848D90E0019604
:100660008F739927848FA689B7892C93A089B18924
:100670008C91837080648C93938D848D981306C0C5
:100680000288F389E02D80818F7D80830895EF9229
:10069000FF920F931F93CF93DF93EC0181E0888F3C
:1006A0009B8D8C8D98131AC0E889F989808185FF0C
:1006B00015C09FB7F894EE89FF896083E889F989AE
:1006C00080818370806480839FBF81E090E0DF91B0
:1006D000CF911F910F91FF90EF900895F62E0B8D03
:1006E00010E00F5F1F4F0F731127E02E8C8D8E11BE
:1006F0000CC00FB607FCFACFE889F989808185FF25
:10070000F5CFCE010E942503F1CFEB8DEC0FFD2F2D
:10071000F11DE35AFF4FF0829FB7F8940B8FEA89DF
:10072000FB8980818062CFCFCF93DF93EC01888DEE
:100730008823B9F0AA89BB89E889F9898C9185FD5C
:1007400003C0808186FD0DC00FB607FCF7CF8C91EA
:1007500085FFF2CF808185FFEDCFCE010E9425037A
:10076000E9CFDF91CF910895089590E080E008955A
:10077000CF93DF93EC0160E08E810E94C40061E0C2
:100780008E810E94C40060E08E810E94C4008BE8CC
:1007900091E00197F1F7DF91CF910895CF92DF9229
:1007A000EF92FF920F931F93CF93DF936C017C0125
:1007B00087E0E80EF11CD0E0C0E0062F10E0B801A1
:1007C0000C2E02C0759567950A94E2F76170F701E7
:1007D00081917F010E94C4002196C430D10579F730
:1007E000C601DF91CF911F910F91FF90EF90DF90A5
:1007F000CF900C94B803CF92DF92EF92FF920F93B9
:100800001F93CF93DF93EC01F62E642F8C810E940F
:10081000C4008D818F3F19F060E00E94C4000F2D4D
:1008200010E08F8584FF25C06E0187E0C80ED11CC3
:10083000F12CE12CB8010E2C02C0759567950A9435
:10084000E2F76170F60181916F010E94C400FFEF31
:10085000EF1AFF0A88E0E816F10461F7CE01DF9194
:10086000CF911F910F91FF90EF90DF90CF900C945C
:10087000B803B80184E0759567958A95E1F7CE01D4
:100880000E94CE036F2DCE01DF91CF911F910F916A
:10089000FF90EF90DF90CF900C94CE0340E0682F54
:1008A00083E092E00C94FB03CF93DF93823029F432
:1008B0009091120298609093120280931602109207
:1008C000170280E48093180280E18093190280E58A
:1008D00080931A0261E0809107020E9410018091CA
:1008E00008028F3F19F061E00E94100161E08091E1
:1008F00009020E941001C3E0D2E09E012350324061
:100900008091120284FD0BC084E090E021962817AC
:10091000390744F461E08E810E941001EECF88E037
:1009200090E0F4CF8BE39DE00197F1F760E08091D8
:1009300007020E94C40060E0809109020E94C40086
:10094000809108028F3F19F060E00E94C4008091FE
:10095000120284FD39C063E083E092E00E94CE037E
:10096000CBE4D6E4CE010197F1F763E083E092E0B7
:100970000E94CE032197F1F763E083E092E00E94AA
:10098000CE0383E592E00197F1F762E083E092E025
:100990000E94CE038091120280620E944E0484E085
:1009A000809313028CE00E944E0481E00E944E046A
:1009B0008BE39FE10197F1F782E08093140286E0D8
:1009C000DF91CF910C944E0480620E944E048BE420
:1009D00096E40197F1F78091120280620E944E0422
:1009E00083E592E00197F1F78091120280620E9404
:1009F0004E04D0CF41E00E94FB0381E090E00895D7
:100A0000FB0101900020E9F73197AF01461B570B1E
:100A1000DC01ED91FC910280F381E02D09948F922D
:100A20009F92AF92BF920F931F93CF93DF93CDB757
:100A3000DEB7A1970FB6F894DEBF0FBECDBF19A2E7
:100A4000423008F44AE08E010F5D1F4F842E912C36
:100A5000B12CA12CA50194010E94290AE62FB9010D
:100A6000CA01EA3004F5E05DD801EE938D01232B35
:100A7000242B252B79F790E080E0109729F0BD0119
:100A800083E591E00E940005A1960FB6F894DEBFC1
:100A90000FBECDBFDF91CF911F910F91BF90AF904F
:100AA0009F908F900895E95CDFCF1F920F920FB651
:100AB0000F9211242F933F938F939F93AF93BF93E4
:100AC00080914F0190915001A0915101B09152013C
:100AD00030914A0123E0230F2D3758F50196A11DCF
:100AE000B11D20934A0180934F0190935001A09330
:100AF0005101B093520180914B0190914C01A09112
:100B00004D01B0914E010196A11DB11D80934B0185
:100B100090934C01A0934D01B0934E01BF91AF91C2
:100B20009F918F913F912F910F900FBE0F901F902B
:100B3000189526E8230F0296A11DB11DD2CF1F9252
:100B40000F920FB60F9211242F933F934F935F9301
:100B50006F937F938F939F93AF93BF93EF93FF9385
:100B600083E591E00E942503FF91EF91BF91AF9142
:100B70009F918F917F916F915F914F913F912F91B5
:100B80000F900FBE0F901F9018951F920F920FB6E7
:100B90000F9211242F938F939F93EF93FF93E091E4
:100BA0006301F09164018081E0916901F0916A0133
:100BB00082FD1BC0908180916C018F5F8F732091AB
:100BC0006D01821741F0E0916C01F0E0ED5AFE4FAB
:100BD000958F80936C01FF91EF919F918F912F9151
:100BE0000F900FBE0F901F9018958081F4CFE3E512
:100BF000F1E01382128288EE93E0A0E0B0E08483FB
:100C00009583A683B78384E291E09183808385EC0A
:100C100090E09587848784EC90E09787868780ECC6
:100C200090E0918B808B81EC90E0938B828B82ECB7
:100C300090E0958B848B86EC90E0978B868B118E61
:100C4000128E138E148EE3E0F2E01382128286E39A
:100C500091E09183808387E084838FEF858386E0B2
:100C6000868385E0878384E0808783E0818782E0D4
:100C700082871386148615861686178681E00E9461
:100C80005404A0EFB1E088E015968C9315978BE0A3
:100C900016968C931697E6EBF0E0E4911796EC939A
:100CA0001797E2EAF0E0E4911896EC93189740E881
:100CB0005EE360E070E01D964D935D936D937C93D1
:100CC00050970895789484B5826084BD84B581601E
:100CD00084BD85B5826085BD85B5816085BD809107
:100CE0006E00816080936E0010928100809181007F
:100CF0008260809381008091810081608093810077
:100D0000809180008160809380008091B100846038
:100D10008093B1008091B00081608093B000809199
:100D20007A00846080937A0080917A008260809358
:100D30007A0080917A00816080937A0080917A00B5
:100D4000806880937A001092C10082E00E9454046F
:100D500062E08091F5010E9410012FB7F894809114
:100D60004F0190915001A0915101B09152012FBFBC
:100D7000805D9740A109B1098093F9019093FA0130
:100D8000A093FB01B093FC0187E380930202E09102
:100D90006301F091640182E08083E0915F01F09152
:100DA00060011082E0916101F09162018FEC80831B
:100DB00010926B01E0916701F091680186E08083F9
:100DC000E0916501F0916601808180618083E0910E
:100DD0006501F0916601808188608083E091650102
:100DE000F0916601808180688083E0916501F091D7
:100DF000660180818F7D80830BE31FE19AE0792E6D
:100E0000C0E0D0E02FED622E68EE73E080E090E06D
:100E10000E9466010E949801882349F08091F601A2
:100E20008B3028F08D3040F085518230A8F160E0A1
:100E300070E080EC9FE71CC06091F10170E090E0F1
:100E400080E00E94FB082DEC3CEC4CEC5DE30E9442
:100E500087096B017C016091F00170E090E080E017
:100E60000E94FB089B01AC01C701B6010E945E080D
:100E70000E94CA08562E0E949801882341F0809152
:100E8000F6018C3009F4A0C0C8F48B3081F160E029
:100E900070E080EC9FE753C06091F0017091F10128
:100EA00076276727762790E080E00E94F9082DECEE
:100EB0003CEC4CEC5DE30E948709DACF855182302F
:100EC00030F7F090F2016F2D70E0762F66276627DD
:100ED0007F778091F301682B90E080E00E94F90811
:100EE0002DEC3CEC4CEC5DE30E94870989C06091DD
:100EF000F20170E090E080E00E94F9086B017C0153
:100F0000B090F301B7FE0AC0AC019B0160E070E055
:100F100080E89FEB0E945D086B017C016B2D6F7078
:100F200070E090E080E00E94FB082DEC3CEC4CEC83
:100F30005DE30E948709A70196010E945E080E9456
:100F4000CA08462EC52CD12CF12CE12CC701B601C4
:100F50000E94F9089B01AC010E94F40981110FC0A5
:100F6000842C912CB12CA12CC501B4010E94F9084C
:100F70009B01AC010E94F409882309F445C081E07B
:100F80000E944E04C8010197F1F7E1E0809116023A
:100F90008111E0E0E195F0E0ED5FFD4F84898B5F2A
:100FA00080680E944E046EE371E083E092E00E944C
:100FB0000005209709F428CF0E941103882309F423
:100FC00023CF0E94000020CFF090F2016F2D70E03F
:100FD00090E080E00E94F9084B015C016091F30110
:100FE0006F7070E090E080E00E94FB082DEC3CEC1C
:100FF0004CEC5DE30E948709A50194010E945E0804
:10100000F7FE9DCF90589BCF842D672D0E941D0A1F
:10101000805D80931701905D9093180160921B0191
:10102000852D0E941D0A805D80930701905D90933D
:101030000801E1E0809116028111E0E0E195F0E025
:10104000ED5FFD4F848980680E944E0460E171E08D
:1010500083E092E00E940005E0911602E23058F52C
:10106000E150F0E0ED5FFD4F848980680E944E04FE
:1010700060E071E083E092E00E9400054AE0C50173
:10108000B4010E940F0564E471E083E591E00E94E1
:1010900000054AE0C701B6010E940F0566E471E051
:1010A00083E591E00E94000568EB7BE080E090E042
:1010B0000E9466017ECFE1E0D4CF5058BB27AA271B
:1010C0000E9475080C944D090E943F0938F00E9457
:1010D000460920F039F49F3F19F426F40C943C099A
:1010E0000EF4E095E7FB0C943609E92F0E945E09A7
:1010F00058F3BA17620773078407950720F079F44D
:10110000A6F50C9480090EF4E0950B2EBA2FA02DB5
:101110000B01B90190010C01CA01A0011124FF27A4
:10112000591B99F0593F50F4503E68F11A16F0409F
:10113000A22F232F342F4427585FF3CF469537959E
:101140002795A795F0405395C9F77EF41F16BA0B63
:10115000620B730B840BBAF09150A1F0FF0FBB1F11
:10116000661F771F881FC2F70EC0BA0F621F731F5A
:10117000841F48F4879577956795B795F7959E3FB7
:1011800008F0B0CF9395880F08F09927EE0F979548
:10119000879508950E94660988F09F5798F0B92FA7
:1011A0009927B751B0F0E1F0660F771F881F991F9C
:1011B0001AF0BA95C9F714C0B13091F00E948009B5
:1011C000B1E008950C948009672F782F8827B85FC5
:1011D00039F0B93FCCF3869577956795B395D9F7F4
:1011E0003EF490958095709561957F4F8F4F9F4FFE
:1011F0000895E89409C097FB3EF49095809570950A
:1012000061957F4F8F4F9F4F9923A9F0F92F96E952
:10121000BB279395F695879577956795B795F111C7
:10122000F8CFFAF4BB0F11F460FF1BC06F5F7F4F64
:101230008F4F9F4F16C0882311F096E911C0772376
:1012400021F09EE8872F762F05C0662371F096E87F
:10125000862F70E060E02AF09A95660F771F881F4E
:10126000DAF7880F9695879597F9089597F99F670C
:1012700080E870E060E008959FEF80EC089500241E
:101280000A941616170618060906089500240A94EB
:1012900012161306140605060895092E0394000C71
:1012A00011F4882352F0BB0F40F4BF2B11F460FF00
:1012B00004C06F5F7F4F8F4F9F4F089557FD905829
:1012C000440F551F59F05F3F71F04795880F97FB0A
:1012D000991F61F09F3F79F08795089512161306C4
:1012E0001406551FF2CF4695F1DF08C016161706F3
:1012F0001806991FF1CF8695710561050894089528
:10130000E894BB2766277727CB0197F908950E94B9
:101310009A090C944D090E943F0938F00E94460931
:1013200020F0952311F00C9436090C943C091124FB
:101330000C9481090E945E0970F3959FC1F3950F8B
:1013400050E0551F629FF001729FBB27F00DB11D49
:10135000639FAA27F00DB11DAA1F649F6627B00DD9
:10136000A11D661F829F2227B00DA11D621F739FC2
:10137000B00DA11D621F839FA00D611D221F749FD0
:101380003327A00D611D231F849F600D211D822F17
:10139000762F6A2F11249F5750409AF0F1F088233E
:1013A0004AF0EE0FFF1FBB1F661F771F881F91506B
:1013B0005040A9F79E3F510580F00C9436090C94DB
:1013C00081095F3FE4F3983ED4F38695779567955E
:1013D000B795F795E7959F5FC1F7FE2B880F911D95
:1013E0009695879597F908950E94F909880B990BAE
:1013F0000895990F0008550FAA0BE0E8FEEF1616A6
:101400001706E807F907C0F012161306E407F507F8
:1014100098F0621B730B840B950B39F40A2661F06C
:10142000232B242B252B21F408950A2609F4A1400F
:10143000A6958FEF811D811D0895991B79E004C049
:10144000991F961708F0961B881F7A95C9F7809503
:101450000895A1E21A2EAA1BBB1BFD010DC0AA1FF5
:10146000BB1FEE1FFF1FA217B307E407F50720F00D
:10147000A21BB30BE40BF50B661F771F881F991F88
:101480001A9469F760957095809590959B01AC01D1
:10149000BD01CF010895EE0FFF1F0590F491E02DDF
:1014A0000994F894FFCF52482020203D2030302E60
:1014B00030202520200054656D70203D2030302ED6
:1014C000302043202000000000004703A702D40280
:1014D00094030503E302F70200000000FA04A702E8
:1014E000B503B4034572726F720078000D0A0000F4
:107E0000112484B714BE81FFF0D085E080938100F7
:107E100082E08093C00088E18093C10086E0809377
:107E2000C20080E18093C4008EE0C9D0259A86E02C
:107E300020E33CEF91E0309385002093840096BBD3
:107E4000B09BFECF1D9AA8958150A9F7CC24DD24C4
:107E500088248394B5E0AB2EA1E19A2EF3E0BF2EE7
:107E6000A2D0813461F49FD0082FAFD0023811F036
:107E7000013811F484E001C083E08DD089C08234E0
:107E800011F484E103C0853419F485E0A6D080C0E4
:107E9000853579F488D0E82EFF2485D0082F10E0AE
:107EA000102F00270E291F29000F111F8ED06801E7
:107EB0006FC0863521F484E090D080E0DECF843638
:107EC00009F040C070D06FD0082F6DD080E0C81688
:107ED00080E7D80618F4F601B7BEE895C0E0D1E017
:107EE00062D089930C17E1F7F0E0CF16F0E7DF06D8
:107EF00018F0F601B7BEE89568D007B600FCFDCFD4
:107F0000A601A0E0B1E02C9130E011968C91119780
:107F100090E0982F8827822B932B1296FA010C0160
:107F200087BEE89511244E5F5F4FF1E0A038BF0790
:107F300051F7F601A7BEE89507B600FCFDCF97BE46
:107F4000E89526C08437B1F42ED02DD0F82E2BD052
:107F50003CD0F601EF2C8F010F5F1F4F84911BD097
:107F6000EA94F801C1F70894C11CD11CFA94CF0C13
:107F7000D11C0EC0853739F428D08EE10CD085E9AC
:107F80000AD08FE07ACF813511F488E018D01DD067
:107F900080E101D065CF982F8091C00085FFFCCF94
:107FA0009093C60008958091C00087FFFCCF809118
:107FB000C00084FD01C0A8958091C6000895E0E648
:107FC000F0E098E1908380830895EDDF803219F02E
:107FD00088E0F5DFFFCF84E1DECF1F93182FE3DFCA
:107FE0001150E9F7F2DF1F91089580E0E8DFEE27F6
:047FF000FF270994CA
:027FFE00040479
:00000001FF
