:100000000C945E000C9486000C9486000C94860080
:100010000C9486000C9486000C9486000C942804A2
:100020000C9486000C9486000C9486000C94860038
:100030000C9486000C9486000C9486000C94860028
:100040000C94DE030C9486000C94D0040C94AA0447
:100050000C9486000C9486000C9486000C94860008
:100060000C9486000C9486000200000000240027F7
:10007000002A0000000000250028002B00040404D2
:100080000404040404020202020202030303030341
:10009000030102040810204080010204081020011E
:1000A0000204081020000000080002010000030400
:1000B00007000000000000000000020511241FBE20
:1000C000CFEFD8E0DEBFCDBF11E0A0E0B1E0E2E9C4
:1000D000FFE002C005900D92AA35B107D9F722E0E2
:1000E000AAE5B1E001C01D92A932B207E1F710E024
:1000F000CEE5D0E004C02197FE010E94C107CD35B6
:10010000D107C9F70E944C050C94C7070C94000056
:1001100090E0FC01EB55FF4F2491FC01EF56FF4F9F
:100120003491FC01E358FF4FE491EE23C9F0222300
:1001300039F0233001F1A8F4213019F1223029F1EE
:10014000F0E0EE0FFF1FED58FF4FA591B4918FB770
:10015000F894EC91611126C030953E233C938FBFFB
:1001600008952730A9F02830C9F0243049F780914C
:1001700080008F7D03C0809180008F778093800006
:10018000DFCF84B58F7784BDDBCF84B58F7DFBCF88
:100190008091B0008F778093B000D2CF8091B00073
:1001A0008F7DF9CF3E2BDACFCF93DF9390E0FC0128
:1001B000EF56FF4F249183589F4FFC018491882371
:1001C000D1F090E0880F991FFC01E759FF4FA591EE
:1001D000B491FC01ED58FF4FC591D49161110EC04F
:1001E0009FB7F8948C91E22FE0958E238C93288111
:1001F000E223E8839FBFDF91CF9108958FB7F894F2
:10020000EC91E22BEC938FBFF6CF3FB7F89480913F
:10021000700190917101A0917201B091730126B5A6
:10022000A89B05C02F3F19F00196A11DB11D3FBF2E
:10023000BA2FA92F982F8827BC01CD01620F711DFD
:10024000811D911D42E0660F771F881F991F4A95F7
:10025000D1F70895AF92BF92CF92DF92EF92FF92C3
:100260000F931F93CF93DF936C017B018B01040FDE
:10027000151FEB015E01AE18BF08C017D10759F07A
:100280006991D601ED91FC910190F081E02DC601BC
:100290000995892B79F7C501DF91CF911F910F91B6
:1002A000FF90EF90DF90CF90BF90AF900895FC014A
:1002B000538D448D252F30E0842F90E0821B930BCB
:1002C000541710F0CF96089501970895FC01918D71
:1002D000828D981761F0A28DAE0FBF2FB11D5D9674
:1002E0008C91928D9F5F9F73928F90E008958FEF16
:1002F0009FEF0895FC01918D828D981731F0828DCA
:10030000E80FF11D858D90E008958FEF9FEF089520
:10031000FC01918D228D892F90E0805C9F4F821B84
:1003200091098F739927089584E791E00E948801CD
:1003300021E0892B09F420E0822F089580E090E0ED
:10034000892B29F00E94940181110C9400000895DA
:10035000FC01A48DA80FB92FB11DA35ABF4F2C913A
:10036000848D90E001968F739927848FA689B78931
:100370002C93A089B1898C91837080648C93938D28
:10038000848D981306C00288F389E02D80818F7DCB
:1003900080830895EF92FF920F931F93CF93DF9383
:1003A000EC0181E0888F9B8D8C8D98131AC0E889B1
:1003B000F989808185FF15C09FB7F894EE89FF8980
:1003C0006083E889F98980818370806480839FBF1E
:1003D00081E090E0DF91CF911F910F91FF90EF901E
:1003E0000895F62E0B8D10E00F5F1F4F0F7311272E
:1003F000E02E8C8D8E110CC00FB607FCFACFE88969
:10040000F989808185FFF5CFCE010E94A801F1CF47
:10041000EB8DEC0FFD2FF11DE35AFF4FF0829FB7DC
:10042000F8940B8FEA89FB8980818062CFCFCF93CC
:10043000DF93EC01888D8823B9F0AA89BB89E8890C
:10044000F9898C9185FD03C0808186FD0DC00FB6B2
:1004500007FCF7CF8C9185FFF2CF808185FFEDCF30
:10046000CE010E94A801E9CFDF91CF9108950895B0
:1004700090E080E00895CF93DF93EC0160E08E81FF
:100480000E94880061E08E810E94880060E08E8179
:100490000E9488008BE891E00197F1F7DF91CF91FE
:1004A0000895CF92DF92EF92FF920F931F93CF9315
:1004B000DF936C017C0187E0E80EF11CD0E0C0E026
:1004C000062F10E0B8010C2E02C0759567950A94AE
:1004D000E2F76170F70181917F010E948800219607
:1004E000C430D10579F7C601DF91CF911F910F91EB
:1004F000FF90EF90DF90CF900C943B02CF92DF9271
:10050000EF92FF920F931F93CF93DF93EC01F62EA0
:10051000642F8C810E9488008D818F3F19F060E0EC
:100520000E9488000F2D10E08F8584FF25C06E018A
:1005300087E0C80ED11CF12CE12CB8010E2C02C0B2
:10054000759567950A94E2F76170F60181916F01E4
:100550000E948800FFEFEF1AFF0A88E0E816F10416
:1005600061F7CE01DF91CF911F910F91FF90EF9036
:10057000DF90CF900C943B02B80184E075956795AD
:100580008A95E1F7CE010E9451026F2DCE01DF91D5
:10059000CF911F910F91FF90EF90DF90CF900C942F
:1005A000510240E0682F81E192E00C947E02CF93EB
:1005B000DF93823029F4909120029860909320027A
:1005C000809324021092250280E48093260280E129
:1005D0008093270280E58093280261E080911502D4
:1005E0000E94D400809116028F3F19F061E00E94B2
:1005F000D40061E0809117020E94D400C1E1D2E0F2
:100600009E01215132408091200284FD0BC084E084
:1006100090E021962817390744F461E08E810E940A
:10062000D400EECF88E090E0F4CF8BE39DE001971B
:10063000F1F760E0809115020E94880060E08091EF
:1006400017020E948800809116028F3F19F060E027
:100650000E9488008091200284FD39C063E081E11E
:1006600092E00E945102CBE4D6E4CE010197F1F76B
:1006700063E081E192E00E9451022197F1F763E08B
:1006800081E192E00E94510283E592E00197F1F747
:1006900062E081E192E00E9451028091200280623A
:1006A0000E94D10284E0809321028CE00E94D1025A
:1006B00081E00E94D1028BE39FE10197F1F782E094
:1006C0008093220286E0DF91CF910C94D102806268
:1006D0000E94D1028BE496E40197F1F78091200209
:1006E00080620E94D10283E592E00197F1F7809148
:1006F000200280620E94D102D0CF41E00E947E029F
:1007000081E090E00895FB0101900020E9F7319726
:10071000AF01461B570BDC01ED91FC910280F38188
:10072000E02D09948F929F92AF92BF92EF92FF9229
:100730000F931F93CF93DF93CDB7DEB7A1970FB67B
:10074000F894DEBF0FBECDBF7C01FA01CB0119A228
:10075000223008F42AE08E010F5D1F4F822E912C6B
:10076000B12CA12CBF01A50194010E949F07F901A2
:10077000CA016A300CF5605DD8016E938D01232BA0
:10078000242B252B79F790E080E0109721F0BD0114
:10079000C7010E948303A1960FB6F894DEBF0FBE77
:1007A000CDBFDF91CF911F910F91FF90EF90BF9040
:1007B000AF909F908F900895695CDECF1F920F924B
:1007C0000FB60F9211242F933F938F939F93AF9364
:1007D000BF9380916C0190916D01A0916E01B091D9
:1007E0006F0130916B0123E0230F2D3758F50196EF
:1007F000A11DB11D20936B0180936C0190936D013D
:10080000A0936E01B0936F0180917001909171017E
:10081000A0917201B09173010196A11DB11D809349
:10082000700190937101A0937201B0937301BF9115
:10083000AF919F918F913F912F910F900FBE0F908D
:100840001F90189526E8230F0296A11DB11DD2CF47
:100850001F920F920FB60F9211242F933F934F9335
:100860005F936F937F938F939F93AF93BF93EF9318
:10087000FF9380915F0190916001A0916101B0911F
:100880006201892B8A2B8B2BD1F190915A01E09137
:100890005B01F0915C0180818927808380915F01F9
:1008A00090916001A0916101B09162011816190642
:1008B0001A061B069CF480915F0190916001A09143
:1008C0006101B09162010197A109B10980935F01B3
:1008D00090936001A0936101B0936201FF91EF9149
:1008E000BF91AF919F918F917F916F915F914F9148
:1008F0003F912F910F900FBE0F901F9018958091F0
:100900000001E8E6F0E0E4919FEF90930001E13010
:1009100051F030F0E23069F060E00E948800DECFF4
:1009200010926E00F9CF90916F009D7F90936F00B1
:10093000F3CF909170009D7F9093700091E0909321
:10094000B0009091B100987F94609093B1001092A4
:10095000B300E2CF1F920F920FB60F9211242F9384
:100960003F934F935F936F937F938F939F93AF9337
:10097000BF93EF93FF9384E791E00E94A801FF915A
:10098000EF91BF91AF919F918F917F916F915F9107
:100990004F913F912F910F900FBE0F901F90189580
:1009A0001F920F920FB60F9211242F938F939F9344
:1009B000EF93FF93E0918401F09185018081E091B4
:1009C0008A01F0918B0182FD1BC0908180918D0185
:1009D0008F5F8F7320918E01821741F0E0918D011E
:1009E000F0E0EC58FE4F958F80938D01FF91EF91D1
:1009F0009F918F912F910F900FBE0F901F90189580
:100A00008081F4CFE4E7F1E01382128288EE93E074
:100A1000A0E0B0E084839583A683B78385E091E06E
:100A20009183808385EC90E09587848784EC90E0C7
:100A30009787868780EC90E0918B808B81EC90E0AB
:100A4000938B828B82EC90E0958B848B86EC90E08C
:100A5000978B868B118E128E138E148EE1E1F2E04D
:100A60001382128287E191E0918380838CE08483FA
:100A70008FEF85838BE0868385E0878384E08087A2
:100A800083E0818782E08287138614861586168626
:100A9000178681E00C94D702789484B5826084BD77
:100AA00084B5816084BD85B5826085BD85B5816072
:100AB00085BD80916E00816080936E0010928100F0
:100AC00080918100826080938100809181008160AB
:100AD000809381008091800081608093800080916C
:100AE000B10084608093B1008091B00081608093F8
:100AF000B00080917A00846080937A0080917A00BF
:100B0000826080937A0080917A00816080937A007D
:100B100080917A00806880937A001092C10061E031
:100B200088E00E94D40061E089E00E94D40060E087
:100B30008EE00E94D400E0918401F091850182E072
:100B40008083E0918001F09181011082E091820127
:100B5000F09183018FEC808310928C01E0918801E9
:100B6000F091890186E08083E0918601F091870110
:100B7000808180618083E0918601F091870180818E
:100B800088608083E0918601F09187018081806890
:100B90008083E0918601F091870180818F7D808341
:100BA00081E00E94D1028BE39FE10197F1F782E09F
:100BB0000E94D70206E810E04AE9242E40E0342ED5
:100BC00050E9C52EDD24D394E12CF12CD0E4D09350
:100BD0007C0080917A00806480937A0080917A0012
:100BE00086FDFCCFA0907800B09079006FE171E0B5
:100BF00084E791E00E94830325010B2C000C66081A
:100C000077082AE0B301A20177FE0DC06DE284E708
:100C100091E00E94CA0144275527BA014419550999
:100C2000660977092AE084E791E00E9492036DE269
:100C300071E084E791E00E948303E1E08091240267
:100C40008111E0E0E195F0E0EF5EFD4F848980687E
:100C50000E94D10260E371E081E192E00E9483038F
:100C60002AE0B301A20177FE0EC041E06DE281E10E
:100C700092E00E947E0244275527BA014419550983
:100C8000660977092AE081E192E00E9492032BEF46
:100C9000A216B1040CF429C1E0912402E23008F05C
:100CA00045C0E150F0E0EF5EFD4F84898F5F8068C2
:100CB0000E94D1026DE371E081E192E00E94830322
:100CC0006DE371E084E791E00E9483036DE271E0DF
:100CD00084E791E00E94830380910001893041F50F
:100CE000E8E6F0E0C491C7FDC2C061E089E00E947F
:100CF000D400CC2309F48BC0C23009F09CC0809191
:100D0000B100887F83608093B10089EF8093B30046
:100D1000C0925F01D0926001E0926101F0926201A5
:100D200080917000826080937000A1C0E1E0BACF32
:100D30008F3F09F09CC089E080930001E8E6F0E075
:100D4000C491CF3F09F493C0C13019F150F0C230C3
:100D500009F43CC0C7FD8BC061E089E00E94D4006B
:100D6000CBCF14BC15BC84B5826084BD85B58160D1
:100D700085BDF8018491E82FF0E0EE0FFF1FED58DC
:100D8000FF4F85919491F101849180935E01C0E0C1
:100D9000ACCF109280001092810080918100886019
:100DA0008093810080918100816080938100F801AF
:100DB0008491E82FF0E0EE0FFF1FED58FF4F859173
:100DC0009491F101849180935D018FCF1092B000D6
:100DD0001092B1008091B00082608093B000809149
:100DE000B10081608093B100F8018491E82FF0E0B8
:100DF000EE0FFF1FED58FF4F8591949190935C018A
:100E000080935B01F101849180935A016ECF85B587
:100E1000887F836085BD8CE787BDC0926701D092D3
:100E20006801E0926901F0926A0180916E0082602F
:100E300080936E001CC0C13009F04FC080918100CA
:100E4000887F8160809381008FE39FE19093890088
:100E500080938800C0926301D0926401E0926501A2
:100E6000F092660180916F00826080936F0061E074
:100E700088E00E9488000E9405012B013C0184EF5C
:100E8000882E99249394A12CB12C0E9405016419F9
:100E9000750986099709683E734081059105A8F395
:100EA00091E0891A9108A108B108E8EE4E0EE3E03E
:100EB0005E1E611C711C81149104A104B10429F708
:100EC00080E090E0892B09F482CE0E94940188236F
:100ED00009F47CCE0E94000079CEC23021F0C1110D
:100EE000C6CF8FE399CF8FE311CF60E089E00E94F6
:100EF000880060E088E00E948800E0912402E230EF
:100F0000E0F4E150F0E0EF5EFD4F84898F5F806890
:100F10000E94D1026BE471E081E192E00E948303C0
:100F20006BE471E084E791E00E9483036DE271E07D
:100F300084E791E00E9483039ECFE1E0E3CFA1E24A
:100F40001A2EAA1BBB1BFD010DC0AA1FBB1FEE1F43
:100F5000FF1FA217B307E407F50720F0A21BB30B8E
:100F6000E40BF50B661F771F881F991F1A9469F70A
:100F700060957095809590959B01AC01BD01CF0166
:100F80000895EE0FFF1F0590F491E02D0994F89459
:020F9000FFCF91
:100F9200FF00000000CA012A0157011702880166FA
:100FA200017A01000000007D032A01380237024164
:100FB2006972205175616C6974793A20000D0A00DA
:100FC200416972205175616C69743A200041512067
:100FD2004C6576656C2048494748004151204C6574
:0A0FE20076656C20476F6F64000015
:00000001FF
