:020000040000FA
:100000000C9463000C948B000C948B000C94C9032B
:100010000C94C9030C94C9030C948B000C948B00B2
:100020000C948B000C948B000C948B000C948B0024
:100030000C948B000C948B000C948B000C948B0014
:100040000C9427030C948B000C9497030C9471036D
:100050000C948B000C948B000C948B000C948B00F4
:100060000C948B000C948B000000000024002700EF
:100070002A0000000008000201000003040700003D
:1000800000000000000000000000230026002900FE
:1000900000000000250028002B00040404040404D0
:1000A0000404020202020202030303030303010227
:1000B00004081020408001020408102001020408F6
:1000C00010206F04C00611241FBECFEFD8E0DEBFA2
:1000D000CDBF11E0A0E0B1E0EEEDFDE002C0059083
:1000E0000D92A838B107D9F722E0A8E8B1E001C025
:1000F0001D92A139B207E1F710E0C2E6D0E004C0DA
:100100002197FE010E94DC06C136D107C9F70E9483
:1001100018050C94E2060C940000833081F028F45A
:10012000813099F08230A9F008958730A9F08830A5
:10013000C9F08430B1F4809180008F7D03C080913C
:1001400080008F7780938000089584B58F7784BD79
:10015000089584B58F7DFBCF8091B0008F77809319
:10016000B00008958091B0008F7DF9CFCF93DF93D9
:1001700090E0FC01E255FF4F249186569F4FFC0111
:1001800084918823C9F090E0880F991FFC01E859F9
:10019000FF4FA591B491FC01E057FF4FC591D49159
:1001A00061110DC09FB7F8948C91209582238C9398
:1001B0008881282328839FBFDF91CF9108956230E3
:1001C00051F49FB7F8943C91822F809583238C93B0
:1001D000E8812E2BEFCF8FB7F894EC912E2B2C9338
:1001E0008FBFEACF3FB7F8948091D1019091D201AF
:1001F000A091D301B091D40126B5A89B05C02F3F93
:1002000019F00196A11DB11D3FBFBA2FA92F982F3C
:100210008827BC01CD01620F711D811D911D42E037
:10022000660F771F881F991F4A95D1F708958F92FF
:100230009F92AF92BF92CF92DF92EF92FF924B01CB
:100240005C010E94F2006B017C010E94F2006C19BB
:100250007D098E099F09683E734081059105A8F3C9
:1002600021E0821A9108A108B10888EEC80E83E047
:10027000D81EE11CF11C81149104A104B10429F7DA
:10028000FF90EF90DF90CF90BF90AF909F908F90B6
:100290000895AF92BF92CF92DF92EF92FF920F93A9
:1002A0001F93CF93DF936C017B018B01040F151F0C
:1002B000EB015E01AE18BF08C017D10759F0699174
:1002C000D601ED91FC910190F081E02DC6010995D8
:1002D000892B79F7C501DF91CF911F910F91FF9085
:1002E000EF90DF90CF90BF90AF900895FC01538DB9
:1002F000448D252F30E0842F90E0821B930B541700
:1003000010F0CF96089501970895FC01918D828D8C
:10031000981761F0A28DAE0FBF2FB11D5D968C9125
:10032000928D9F5F9F73928F90E008958FEF9FEF64
:100330000895FC01918D828D981731F0828DE80F20
:10034000F11D858D90E008958FEF9FEF0895FC01DA
:10035000918D228D892F90E0805C9F4F821B9109A7
:100360008F739927089585ED91E00E94A70121E000
:10037000892B09F420E0822F089580E090E0892BFA
:1003800029F00E94B30181110C9400000895FC0132
:10039000A48DA80FB92FB11DA35ABF4F2C91848DE6
:1003A00090E001968F739927848FA689B7892C9343
:1003B000A089B1898C91837080648C93938D848D96
:1003C000981306C00288F389E02D80818F7D808399
:1003D0000895EF92FF920F931F93CF93DF93EC0159
:1003E00081E0888F9B8D8C8D98131AC0E889F989DC
:1003F000808185FF15C09FB7F894EE89FF896083DF
:10040000E889F98980818370806480839FBF81E05F
:1004100090E0DF91CF911F910F91FF90EF900895A1
:10042000F62E0B8D10E00F5F1F4F0F731127E02E7C
:100430008C8D8E110CC00FB607FCFACFE889F989B4
:10044000808185FFF5CFCE010E94C701F1CFEB8DF2
:10045000EC0FFD2FF11DE35AFF4FF0829FB7F89488
:100460000B8FEA89FB8980818062CFCFCF93DF93A6
:10047000EC01888D8823B9F0AA89BB89E889F989BC
:100480008C9185FD03C0808186FD0DC00FB607FCF1
:10049000F7CF8C9185FFF2CF808185FFEDCFCE0124
:1004A0000E94C701E9CFDF91CF9108952091CA0141
:1004B0003091CB012817390771F49091C8018091D0
:1004C000C901981741F0E091C801F0E0E857FE4FEC
:1004D000808190E008958FEF9FEF08950895EF9247
:1004E000FF920F931F93CF93DF93DC015C96ED9007
:1004F000FC905D97E114F10479F481E090E01396AB
:100500009C938E93129790E080E0DF91CF911F91A2
:100510000F91FF90EF9008955196ED91FC915297B5
:1005200050968C915097982F90950FB75E962C917E
:100530005E97122F127021FD6095F894208111238F
:1005400019F1282B2083E7012197F1F728E0462FA6
:1005500050E0308160FF1AC0382B3083E7012197CB
:10056000F1F7BA0175956795215089F7112381F04C
:100570008081892380830FBF5C968D919C91019728
:10058000F1F781E090E0C1CF2923DCCF3923E5CF1B
:100590009081892BEFCF2091CA013091CB01281790
:1005A000390761F48091C9012091C80190E0805C15
:1005B0009F4F821B91098F739927089590E080E0E7
:1005C00008952091CA013091CB0128173907B9F459
:1005D0009091C8018091C901981789F0E091C801F4
:1005E000F0E0E857FE4F80812091C80130E02F5F96
:1005F0003F4F2F7333272093C80190E008958FEF6A
:100600009FEF089590E080E00895FB0101900020A5
:10061000E9F73197AF01461B570BDC01ED91FC91D7
:100620000280F381E02D0994CF93DF93BC0185ED27
:1006300091E00E940503EC0164E271E085ED91E038
:100640000E9405038C0F9D1FDF91CF9108951F928B
:100650000F920FB60F9211242F933F938F939F9376
:10066000AF93BF938091CD019091CE01A091CF0126
:10067000B091D0013091CC0123E0230F2D3758F5F4
:100680000196A11DB11D2093CC018093CD019093C3
:10069000CE01A093CF01B093D0018091D101909170
:1006A000D201A091D301B091D4010196A11DB11D39
:1006B0008093D1019093D201A093D301B093D40140
:1006C000BF91AF919F918F913F912F910F900FBE4E
:1006D0000F901F90189526E8230F0296A11DB11DBB
:1006E000D2CF1F920F920FB60F9211242F933F93E8
:1006F0004F935F936F937F938F939F93AF93BF932A
:10070000EF93FF9385ED91E00E94C701FF91EF9178
:10071000BF91AF919F918F917F916F915F914F9119
:100720003F912F910F900FBE0F901F9018951F9221
:100730000F920FB60F9211242F938F939F93EF93E5
:10074000FF93E091E501F091E6018081E091EB01FA
:10075000F091EC0182FD1BC090818091EE018F5FD2
:100760008F732091EF01821741F0E091EE01F0E0EC
:10077000EB52FE4F958F8093EE01FF91EF919F9189
:100780008F912F910F900FBE0F901F901895808121
:10079000F4CF1F920F920FB60F9211242F933F9315
:1007A0004F935F936F937F938F939F93AF93BF9379
:1007B000EF93FF93E091CA01F091CB01309749F09C
:1007C000A685B7858585968D91FF14C09C91892358
:1007D000A1F4FF91EF91BF91AF919F918F917F9184
:1007E0006F915F914F913F912F910F900FBE0F909E
:1007F0001F9018959C91892361F7A389B4899C91D6
:100800008589809589238C93868997890197F1F74B
:10081000608D718DA685B785558538E020E0CB01C8
:100820000197F1F7822F90E095958795282F4C91AD
:10083000452309F02068315091F7868D81FD209580
:100840008091C90190E001968F7399273091C8017A
:10085000381799F0A091C901B0E0A857BE4F2C936A
:100860008093C901828D938D0197F1F7A389B48993
:100870008C919589892B8C93ACCF868D8160868FE6
:10088000F1CF1F93CF93DF93282F30E0F901EE587B
:10089000FF4F8491F901E255FF4FD491F901E656DB
:1008A000FF4FC491CC23A9F0162F81110E948D0017
:1008B000EC2FF0E0EE0FFF1FE057FF4FA591B49132
:1008C0008FB7F894EC91111108C0D095DE23DC931A
:1008D0008FBFDF91CF911F910895DE2BF8CF10923B
:1008E000D8011092D70188EE93E0A0E0B0E08093A9
:1008F000D9019093DA01A093DB01B093DC0124E0ED
:1009000031E03093D6012093D50125EC30E03093CF
:10091000E2012093E10124EC30E03093E4012093E4
:10092000E30120EC30E03093E6012093E50121EC77
:1009300030E03093E8012093E70122EC30E030937F
:10094000EA012093E90126EC30E03093EC0120939A
:10095000EB011092EE011092EF011092F001109253
:10096000F1011092750210927402809376029093B6
:100970007702A0937802B093790286E191E0909398
:100980007302809372021092890210928802109270
:100990008B0210928A0210928D0210928C02109299
:1009A0008F0210928E02609190026E7F6D7F609335
:1009B00090026695617081E068270E94410461E0C1
:1009C00081E00E94B600EFEAF0E0E491E093820259
:1009D000EBE9F0E0E491F0E0EE0FFF1FE057FF4F8E
:1009E00085919491909384028093830260E080E0EB
:1009F0000E94B6008091900281FD04C061E080E019
:100A00000E94410410927E02EEEAF0E0E491E0934D
:100A10007F02EAE9F0E0E491F0E0EE0FFF1FEA5711
:100A2000FF4F859194919093810280938002089565
:100A3000789484B5826084BD84B5816084BD85B5B9
:100A4000826085BD85B5816085BD80916E008160C5
:100A500080936E001092810080918100826080936B
:100A6000810080918100816080938100809180006D
:100A70008160809380008091B10084608093B10098
:100A80008091B00081608093B00080917A00846092
:100A900080937A0080917A00826080937A008091BE
:100AA0007A00816080937A0080917A0080688093D8
:100AB0007A001092C10062E087E00E94B6001092B6
:100AC0008D0210928C0210928B0210928A02109268
:100AD0008902109288028DE991E090938F028093B1
:100AE0008E0290917E02963108F047C02DEB30E0E7
:100AF00030938902209388022BE931E030938B02F6
:100B000020938A022CE231E030938D0220938C02F4
:100B10002091680084E0983048F031E09E3008F47D
:100B200030E081E001C0880F3A95EAF7822B80938C
:100B300068002DE630E0983050F02BE630E09E3033
:100B400030F02CE630E0963110F030E020E03093C9
:100B5000860220938502292F30E0983008F0F3C0F8
:100B600081E001C0880F9A95EAF78093870280910F
:100B70008E0290918F020197F1F780918C029091F3
:100B80008D02892B49F1E091CA01F091CB0182E0FD
:100B9000E237F80709F1309739F0A389B4899C91BD
:100BA0008589809589238C93809190028E7F809394
:100BB00090021092C9011092C80182E792E09093CE
:100BC000CB018093CA01E0918502F0918602808179
:100BD00090918702892B8083E091E501F091E601F5
:100BE00082E08083E091E101F091E2011082E091E6
:100BF000E301F091E4018FEC80831092ED01E0912C
:100C0000E901F091EA0186E08083E091E701F0914B
:100C1000E801808180618083E091E701F091E80143
:100C2000808188608083E091E701F091E801808114
:100C300080688083E091E701F091E80180818F7DF9
:100C4000808368EE73E080E090E00E941701C9E7BE
:100C5000D0E005EB10E091EAE92E90E0F92E20E0DB
:100C6000C22E20E0D22EFE018491F801A490F7015B
:100C7000B490B11075C087E291E00E94140368EC53
:100C800070E080E090E00E94170186E391E00E940E
:100C9000140365E471E082E792E00E94050364E6D4
:100CA00070E080E090E00E94170160E571E082E76B
:100CB00092E00E94050364EF71E080E090E00E9402
:100CC000170169E671E082E792E00E94050364EF94
:100CD00071E080E090E00E9417016AE182E792E013
:100CE0000E946F0264EF71E080E090E00E941701C3
:100CF00064E271E082E792E00E9405038CE791E0F4
:100D00000E94140364EF71E080E090E00E941701FC
:100D100082E792E00E94CB02892B49F082E792E0C1
:100D20000E94E102682F85ED91E00E94E901C11463
:100D3000D10409F498CF0E94B301882309F493CF1A
:100D40000E94000090CF9E3040F42850310981E08D
:100D500001C0880F2A95EAF708CF2E503109F7CF46
:100D600081110E948D00EB2DF0E0EE0FFF1FEA577E
:100D7000FF4FA591B4918C91A82209F47CCFC8CFE4
:100D800086E191E090937302809372028091CA0190
:100D90009091CB018257924071F4E0918502F091DD
:100DA00086029081809187028095892380831092AA
:100DB000CB011092CA010895EE0FFF1F0590F49128
:100DC000E02D099410E0C2E6D0E004C0FE010E94CC
:100DD000DC062196C336D107C9F7F894FFCF00008F
:100DE0000000E901490176013602A7018501990158
:100DF000000000006F02490102036E02CB02E10213
:100E000056020D0A00427574746F6E20707265731D
:100E10007365640053656E64696E6720534D532E8D
:100E20002E2E0041542B434D47463D310D00415479
:100E30002B434D47533D222B393137363033383031
:100E400035313136220D0053494D3830306C206930
:100E50007320776F726B696E6700546578742053E6
:060E6000656E742E000017
:107E0000112484B714BE81FFF0D085E080938100F7
:107E100082E08093C00088E18093C10086E0809377
:107E2000C20080E18093C4008EE0C9D0259A86E02C
:107E300020E33CEF91E0309385002093840096BBD3
:107E4000B09BFECF1D9AA8958150A9F7CC24DD24C4
:107E500088248394B5E0AB2EA1E19A2EF3E0BF2EE7
:107E6000A2D0813461F49FD0082FAFD0023811F036
:107E7000013811F484E001C083E08DD089C08234E0
:107E800011F484E103C0853419F485E0A6D080C0E4
:107E9000853579F488D0E82EFF2485D0082F10E0AE
:107EA000102F00270E291F29000F111F8ED06801E7
:107EB0006FC0863521F484E090D080E0DECF843638
:107EC00009F040C070D06FD0082F6DD080E0C81688
:107ED00080E7D80618F4F601B7BEE895C0E0D1E017
:107EE00062D089930C17E1F7F0E0CF16F0E7DF06D8
:107EF00018F0F601B7BEE89568D007B600FCFDCFD4
:107F0000A601A0E0B1E02C9130E011968C91119780
:107F100090E0982F8827822B932B1296FA010C0160
:107F200087BEE89511244E5F5F4FF1E0A038BF0790
:107F300051F7F601A7BEE89507B600FCFDCF97BE46
:107F4000E89526C08437B1F42ED02DD0F82E2BD052
:107F50003CD0F601EF2C8F010F5F1F4F84911BD097
:107F6000EA94F801C1F70894C11CD11CFA94CF0C13
:107F7000D11C0EC0853739F428D08EE10CD085E9AC
:107F80000AD08FE07ACF813511F488E018D01DD067
:107F900080E101D065CF982F8091C00085FFFCCF94
:107FA0009093C60008958091C00087FFFCCF809118
:107FB000C00084FD01C0A8958091C6000895E0E648
:107FC000F0E098E1908380830895EDDF803219F02E
:107FD00088E0F5DFFFCF84E1DECF1F93182FE3DFCA
:107FE0001150E9F7F2DF1F91089580E0E8DFEE27F6
:047FF000FF270994CA
:027FFE00040479
:00000001FF
